{
  "contractName": "Calculator",
  "abi": [
    {
      "constant": false,
      "inputs": [
        {
          "name": "num",
          "type": "uint256"
        }
      ],
      "name": "addToNumber",
      "outputs": [],
      "payable": false,
      "stateMutability": "nonpayable",
      "type": "function"
    },
    {
      "constant": false,
      "inputs": [],
      "name": "double",
      "outputs": [],
      "payable": false,
      "stateMutability": "nonpayable",
      "type": "function"
    },
    {
      "constant": false,
      "inputs": [
        {
          "name": "num",
          "type": "uint256"
        }
      ],
      "name": "subtractFromNumber",
      "outputs": [],
      "payable": false,
      "stateMutability": "nonpayable",
      "type": "function"
    },
    {
      "constant": false,
      "inputs": [
        {
          "name": "num",
          "type": "uint256"
        }
      ],
      "name": "multiplyWithNumber",
      "outputs": [],
      "payable": false,
      "stateMutability": "nonpayable",
      "type": "function"
    },
    {
      "constant": true,
      "inputs": [],
      "name": "getResult",
      "outputs": [
        {
          "name": "",
          "type": "uint256"
        }
      ],
      "payable": false,
      "stateMutability": "view",
      "type": "function"
    },
    {
      "constant": false,
      "inputs": [
        {
          "name": "num",
          "type": "uint256"
        }
      ],
      "name": "divideByNumber",
      "outputs": [],
      "payable": false,
      "stateMutability": "nonpayable",
      "type": "function"
    },
    {
      "constant": false,
      "inputs": [],
      "name": "half",
      "outputs": [],
      "payable": false,
      "stateMutability": "nonpayable",
      "type": "function"
    },
    {
      "inputs": [
        {
          "name": "initial",
          "type": "uint256"
        }
      ],
      "payable": false,
      "stateMutability": "nonpayable",
      "type": "constructor"
    }
  ],
  "bytecode": "0x6060604052341561000f57600080fd5b60405160208061024c83398101604052808051906020019091905050806000819055505061020a806100426000396000f300606060405260043610610083576000357c0100000000000000000000000000000000000000000000000000000000900463ffffffff16806306ccd230146100885780638fdb7189146100ab578063a9401603146100c0578063b4679b06146100e3578063de29278914610106578063f5cb911d1461012f578063f6a6462c14610152575b600080fd5b341561009357600080fd5b6100a96004808035906020019091905050610167565b005b34156100b657600080fd5b6100be610175565b005b34156100cb57600080fd5b6100e16004808035906020019091905050610187565b005b34156100ee57600080fd5b6101046004808035906020019091905050610195565b005b341561011157600080fd5b6101196101a3565b6040518082815260200191505060405180910390f35b341561013a57600080fd5b61015060048080359060200190919050506101ac565b005b341561015d57600080fd5b6101656101c3565b005b806000540160008190555050565b60026000808282540292505081905550565b806000540360008190555050565b806000540260008190555050565b60008054905090565b806000548115156101b957fe5b0460008190555050565b60026000808282548115156101d457fe5b04925050819055505600a165627a7a72305820c8b41db9632dc8f22c46afdcf7672300b08ef6c96f93d764e9a64d68f3e3cebd0029",
  "source": "pragma solidity ^0.4.4;\n\ncontract Calculator {\n  uint result;\n\n  function Calculator(uint initial) {\n    // constructor\n    result = initial;\n  }\n\n  function getResult() constant returns(uint) {\n    return result;\n  }\n\n  function addToNumber(uint num) {\n    result = result + num;\n  }\n\n  function subtractFromNumber(uint num) {\n    result = result - num;\n  }\n\n  function multiplyWithNumber(uint num) {\n    result = result * num;\n  }\n\n  function divideByNumber(uint num) {\n    result = result / num;\n  }\n\n  function double() {\n    result *= 2;\n  }\n\n  function half() {\n    result /= 2;\n  }\n}\n",
  "sourcePath": "C:\\cygwin\\home\\adamk\\eth\\calculator\\contracts\\Calculator.sol",
  "compiler": {
    "name": "solc",
    "version": "0.4.19+commit.c4cbbb05.Emscripten.clang"
  },
  "schemaVersion": "1.0.1",
  "updatedAt": "2018-01-07T08:11:02.065Z"
}