{
  "contractName": "MultiNumberBettingV6",
  "abi": [
    {
      "constant": false,
      "inputs": [],
      "name": "getBalance",
      "outputs": [
        {
          "name": "",
          "type": "uint256"
        }
      ],
      "payable": false,
      "stateMutability": "nonpayable",
      "type": "function"
    },
    {
      "constant": false,
      "inputs": [
        {
          "name": "amount",
          "type": "uint256"
        }
      ],
      "name": "ownerWithdraw",
      "outputs": [
        {
          "name": "",
          "type": "bool"
        }
      ],
      "payable": false,
      "stateMutability": "nonpayable",
      "type": "function"
    },
    {
      "constant": false,
      "inputs": [
        {
          "name": "player",
          "type": "address"
        }
      ],
      "name": "checkWinning",
      "outputs": [
        {
          "name": "winnerAddress",
          "type": "address"
        },
        {
          "name": "name",
          "type": "string"
        },
        {
          "name": "timeGuessed",
          "type": "uint256"
        },
        {
          "name": "weiWon",
          "type": "uint256"
        }
      ],
      "payable": false,
      "stateMutability": "nonpayable",
      "type": "function"
    },
    {
      "constant": false,
      "inputs": [],
      "name": "getNumbers",
      "outputs": [
        {
          "name": "",
          "type": "uint8"
        },
        {
          "name": "",
          "type": "uint8"
        },
        {
          "name": "",
          "type": "uint8"
        }
      ],
      "payable": false,
      "stateMutability": "nonpayable",
      "type": "function"
    },
    {
      "constant": false,
      "inputs": [],
      "name": "totalGuesses",
      "outputs": [
        {
          "name": "",
          "type": "uint256"
        }
      ],
      "payable": false,
      "stateMutability": "nonpayable",
      "type": "function"
    },
    {
      "constant": false,
      "inputs": [
        {
          "name": "number",
          "type": "uint8"
        },
        {
          "name": "name",
          "type": "string"
        }
      ],
      "name": "guess",
      "outputs": [
        {
          "name": "",
          "type": "bool"
        }
      ],
      "payable": true,
      "stateMutability": "payable",
      "type": "function"
    },
    {
      "constant": false,
      "inputs": [],
      "name": "getLastWinnerInfo",
      "outputs": [
        {
          "name": "winnerAddress",
          "type": "address"
        },
        {
          "name": "name",
          "type": "string"
        },
        {
          "name": "timeGuessed",
          "type": "uint256"
        },
        {
          "name": "ethers",
          "type": "uint256"
        }
      ],
      "payable": false,
      "stateMutability": "nonpayable",
      "type": "function"
    },
    {
      "inputs": [
        {
          "name": "v1",
          "type": "uint8"
        },
        {
          "name": "v2",
          "type": "uint8"
        },
        {
          "name": "v3",
          "type": "uint8"
        }
      ],
      "payable": false,
      "stateMutability": "nonpayable",
      "type": "constructor"
    },
    {
      "payable": true,
      "stateMutability": "payable",
      "type": "fallback"
    }
  ],
  "bytecode": "0x606060405260006002556000600355341561001957600080fd5b604051606080610c848339810160405280805190602001909190805190602001909190805190602001909190505033806000806101000a81548173ffffffffffffffffffffffffffffffffffffffff021916908373ffffffffffffffffffffffffffffffffffffffff16021790555050826005600060038110151561009a57fe5b602091828204019190066101000a81548160ff021916908360ff16021790555081600560016003811015156100cb57fe5b602091828204019190066101000a81548160ff021916908360ff16021790555080600560026003811015156100fc57fe5b602091828204019190066101000a81548160ff021916908360ff160217905550505050610b568061012e6000396000f300606060405260043610610083576000357c0100000000000000000000000000000000000000000000000000000000900463ffffffff16806312065fe01461008557806333f707d1146100ae5780635249c231146100e957806389f915f6146101dc5780638ef282491461022557806395583f711461024e578063ee040eb9146102c4575b005b341561009057600080fd5b610098610393565b6040518082815260200191505060405180910390f35b34156100b957600080fd5b6100cf60048080359060200190919050506103b2565b604051808215151515815260200191505060405180910390f35b34156100f457600080fd5b610120600480803573ffffffffffffffffffffffffffffffffffffffff169060200190919050506104b2565b604051808573ffffffffffffffffffffffffffffffffffffffff1673ffffffffffffffffffffffffffffffffffffffff16815260200180602001848152602001838152602001828103825285818151815260200191508051906020019080838360005b8381101561019e578082015181840152602081019050610183565b50505050905090810190601f1680156101cb5780820380516001836020036101000a031916815260200191505b509550505050505060405180910390f35b34156101e757600080fd5b6101ef61062d565b604051808460ff1660ff1681526020018360ff1660ff1681526020018260ff1660ff168152602001935050505060405180910390f35b341561023057600080fd5b6102386106af565b6040518082815260200191505060405180910390f35b6102aa600480803560ff1690602001909190803590602001908201803590602001908080601f016020809104026020016040519081016040528093929190818152602001838380828437820191505050505050919050506106bd565b604051808215151515815260200191505060405180910390f35b34156102cf57600080fd5b6102d76109c8565b604051808573ffffffffffffffffffffffffffffffffffffffff1673ffffffffffffffffffffffffffffffffffffffff16815260200180602001848152602001838152602001828103825285818151815260200191508051906020019080838360005b8381101561035557808201518184015260208101905061033a565b50505050905090810190601f1680156103825780820380516001836020036101000a031916815260200191505b509550505050505060405180910390f35b60003073ffffffffffffffffffffffffffffffffffffffff1631905090565b60008060009054906101000a900473ffffffffffffffffffffffffffffffffffffffff1673ffffffffffffffffffffffffffffffffffffffff163373ffffffffffffffffffffffffffffffffffffffff1614156104a85760026601c6bf52634000028210801561043857503073ffffffffffffffffffffffffffffffffffffffff163182105b1561049f576000809054906101000a900473ffffffffffffffffffffffffffffffffffffffff1673ffffffffffffffffffffffffffffffffffffffff166108fc839081150290604051600060405180830381858888f19350505050151561049e57600080fd5b5b600090506104ad565b600080fd5b919050565b60006104bc610a0e565b6000806000600160008773ffffffffffffffffffffffffffffffffffffffff1673ffffffffffffffffffffffffffffffffffffffff168152602001908152602001600020905060008160000160009054906101000a900473ffffffffffffffffffffffffffffffffffffffff1673ffffffffffffffffffffffffffffffffffffffff1614151561061957600460009054906101000a900473ffffffffffffffffffffffffffffffffffffffff169450806001018054600181600116156101000203166002900480601f0160208091040260200160405190810160405280929190818152602001828054600181600116156101000203166002900480156106035780601f106105d857610100808354040283529160200191610603565b820191906000526020600020905b8154815290600101906020018083116105e657829003601f168201915b5050505050935080600301549250806004015491505b848484849450945094509450509193509193565b60008060006005600060038110151561064257fe5b602091828204019190069054906101000a900460ff166005600160038110151561066857fe5b602091828204019190069054906101000a900460ff166005600260038110151561068e57fe5b602091828204019190069054906101000a900460ff16925092509250909192565b600060035460025401905090565b60006106c7610a22565b60003073ffffffffffffffffffffffffffffffffffffffff16316002340210156109bb576601c6bf526340003411158015610707575064e8d4a510003410155b151561070f57fe5b600b8560ff1610151561071e57fe5b600090505b60038160ff161015610949578460ff1660058260ff1660038110151561074557fe5b602091828204019190069054906101000a900460ff1660ff16141561093c5733826000019073ffffffffffffffffffffffffffffffffffffffff16908173ffffffffffffffffffffffffffffffffffffffff168152505084826040019060ff16908160ff168152505083826020018190525042826060018181525050600234028260800181815250508160016000846000015173ffffffffffffffffffffffffffffffffffffffff1673ffffffffffffffffffffffffffffffffffffffff16815260200190815260200160002060008201518160000160006101000a81548173ffffffffffffffffffffffffffffffffffffffff021916908373ffffffffffffffffffffffffffffffffffffffff1602179055506020820151816001019080519060200190610875929190610a71565b5060408201518160020160006101000a81548160ff021916908360ff16021790555060608201518160030155608082015181600401559050508160000151600460006101000a81548173ffffffffffffffffffffffffffffffffffffffff021916908373ffffffffffffffffffffffffffffffffffffffff1602179055503373ffffffffffffffffffffffffffffffffffffffff166108fc83608001519081150290604051600060405180830381858888f19350505050151561093757600080fd5b610949565b8080600101915050610723565b6000826000015173ffffffffffffffffffffffffffffffffffffffff161415610982576002600081548092919060010191905055610994565b60036000815480929190600101919050555b506000826000015173ffffffffffffffffffffffffffffffffffffffff16141592506109c0565b600080fd5b505092915050565b60006109d2610a0e565b600080610a00600460009054906101000a900473ffffffffffffffffffffffffffffffffffffffff166104b2565b935093509350935090919293565b602060405190810160405280600081525090565b60a060405190810160405280600073ffffffffffffffffffffffffffffffffffffffff168152602001610a53610af1565b8152602001600060ff16815260200160008152602001600081525090565b828054600181600116156101000203166002900490600052602060002090601f016020900481019282601f10610ab257805160ff1916838001178555610ae0565b82800160010185558215610ae0579182015b82811115610adf578251825591602001919060010190610ac4565b5b509050610aed9190610b05565b5090565b602060405190810160405280600081525090565b610b2791905b80821115610b23576000816000905550600101610b0b565b5090565b905600a165627a7a723058203a29ffc9145b92ca731375b4a4db28960da03c6f4eef27f8a79f2664a18208c00029",
  "source": "pragma solidity ^0.4.0;\r\n\r\nimport \"./MultiNumberBettingAbstractV2.sol\";\r\n\r\ncontract MultiNumberBettingV6 is MultiNumberBettingAbstractV2 {\r\n  struct Winner {\r\n    address winnerAddress;\r\n    string name;\r\n    uint8 guess;\r\n    uint guessAt;\r\n    uint weiReceived;\r\n  }\r\n\r\n  mapping(address => Winner) winners;\r\n\r\n  uint loserCount = 0;\r\n  uint winnerCount = 0;\r\n\r\n  address lastWinner;\r\n\r\n  uint8[3] numbers;\r\n\r\n  function MultiNumberBettingV6(uint8 v1, uint8 v2, uint8 v3) MultiNumberBettingAbstractV2(msg.sender) {\r\n    numbers[0] = v1;\r\n    numbers[1] = v2;\r\n    numbers[2] = v3;\r\n  }\r\n\r\n\r\n  function guess(uint8 number, string name) payable balanceCheck returns (bool) {\r\n    assert(msg.value <= MAX_BET && msg.value >= MIN_BET);\r\n    assert(number < 11);\r\n\r\n    Winner memory w;\r\n\r\n    for (uint8 i = 0; i < numbers.length; i++) {\r\n      if (numbers[i] == number) {\r\n        w.winnerAddress = msg.sender;\r\n        w.guess = number;\r\n        w.name = name;\r\n        w.guessAt = now;\r\n        w.weiReceived = msg.value * 2;\r\n\r\n        winners[w.winnerAddress] = w;\r\n\r\n        lastWinner = w.winnerAddress;\r\n\r\n        msg.sender.transfer(w.weiReceived);\r\n        break;\r\n      }\r\n    }\r\n\r\n    w.winnerAddress != 0x0 ? winnerCount++ : loserCount++;\r\n\r\n    return w.winnerAddress != 0x0;\r\n  }\r\n\r\n  function totalGuesses() returns (uint) {\r\n    return loserCount + winnerCount;\r\n  }\r\n\r\n  function getLastWinnerInfo() returns (address winnerAddress, string name, uint timeGuessed, uint ethers) {\r\n    return checkWinning(lastWinner);\r\n  }\r\n\r\n  function checkWinning(address player) returns (address winnerAddress, string name, uint timeGuessed, uint weiWon) {\r\n    Winner storage w = winners[player];\r\n\r\n    if (w.winnerAddress != 0x0) {\r\n      winnerAddress = lastWinner;\r\n      name = w.name;\r\n      timeGuessed = w.guessAt;\r\n      weiWon = w.weiReceived;\r\n    }\r\n\r\n    return (winnerAddress, name, timeGuessed, weiWon);\r\n  }\r\n\r\n  function ownerWithdraw(uint amount) ownerOnly returns (bool) {\r\n    if (amount < (MAX_BET * 2) && amount < this.balance) {\r\n      ownerAddress.transfer(amount);\r\n    }\r\n\r\n    return false;\r\n  }\r\n\r\n  function getBalance() returns (uint) {\r\n    return this.balance;\r\n  }\r\n  function getNumbers() returns (uint8, uint8, uint8) {\r\n    return (numbers[0], numbers[1], numbers[2]);\r\n  }\r\n}\r\n",
  "sourcePath": "C:\\cygwin\\home\\adamk\\eth\\calculator\\contracts\\MultiNumberBettingV6.sol",
  "compiler": {
    "name": "solc",
    "version": "0.4.19+commit.c4cbbb05.Emscripten.clang"
  },
  "schemaVersion": "1.0.1",
  "updatedAt": "2018-01-07T08:11:02.100Z"
}