{
  "contractName": "MultiNumberBettingV5",
  "abi": [
    {
      "constant": false,
      "inputs": [
        {
          "name": "player",
          "type": "address"
        }
      ],
      "name": "checkWinning",
      "outputs": [
        {
          "name": "winnerAddress",
          "type": "address"
        },
        {
          "name": "name",
          "type": "string"
        },
        {
          "name": "timeGuessed",
          "type": "uint256"
        },
        {
          "name": "ethers",
          "type": "uint256"
        }
      ],
      "payable": false,
      "stateMutability": "nonpayable",
      "type": "function"
    },
    {
      "constant": false,
      "inputs": [],
      "name": "totalGuesses",
      "outputs": [
        {
          "name": "",
          "type": "uint256"
        }
      ],
      "payable": false,
      "stateMutability": "nonpayable",
      "type": "function"
    },
    {
      "constant": false,
      "inputs": [
        {
          "name": "number",
          "type": "uint8"
        },
        {
          "name": "name",
          "type": "string"
        }
      ],
      "name": "guess",
      "outputs": [
        {
          "name": "isCorrect",
          "type": "bool"
        }
      ],
      "payable": true,
      "stateMutability": "payable",
      "type": "function"
    },
    {
      "constant": false,
      "inputs": [],
      "name": "getLastWinnerInfo",
      "outputs": [
        {
          "name": "winnerAddress",
          "type": "address"
        },
        {
          "name": "name",
          "type": "string"
        },
        {
          "name": "timeGuessed",
          "type": "uint256"
        },
        {
          "name": "ethers",
          "type": "uint256"
        }
      ],
      "payable": false,
      "stateMutability": "nonpayable",
      "type": "function"
    },
    {
      "inputs": [
        {
          "name": "v1",
          "type": "uint8"
        },
        {
          "name": "v2",
          "type": "uint8"
        },
        {
          "name": "v3",
          "type": "uint8"
        }
      ],
      "payable": false,
      "stateMutability": "nonpayable",
      "type": "constructor"
    }
  ],
  "bytecode": "0x606060405260006001556000600255341561001957600080fd5b60405160608061092883398101604052808051906020019091908051906020019091908051906020019091905050826004600060038110151561005857fe5b602091828204019190066101000a81548160ff021916908360ff160217905550816004600160038110151561008957fe5b602091828204019190066101000a81548160ff021916908360ff16021790555080600460026003811015156100ba57fe5b602091828204019190066101000a81548160ff021916908360ff16021790555050505061083c806100ec6000396000f300606060405260043610610062576000357c0100000000000000000000000000000000000000000000000000000000900463ffffffff1680635249c231146100675780638ef282491461015a57806395583f7114610183578063ee040eb9146101f9575b600080fd5b341561007257600080fd5b61009e600480803573ffffffffffffffffffffffffffffffffffffffff169060200190919050506102c8565b604051808573ffffffffffffffffffffffffffffffffffffffff1673ffffffffffffffffffffffffffffffffffffffff16815260200180602001848152602001838152602001828103825285818151815260200191508051906020019080838360005b8381101561011c578082015181840152602081019050610101565b50505050905090810190601f1680156101495780820380516001836020036101000a031916815260200191505b509550505050505060405180910390f35b341561016557600080fd5b61016d610442565b6040518082815260200191505060405180910390f35b6101df600480803560ff1690602001909190803590602001908201803590602001908080601f01602080910402602001604051908101604052809392919081815260200183838082843782019150505050505091905050610450565b604051808215151515815260200191505060405180910390f35b341561020457600080fd5b61020c6106ae565b604051808573ffffffffffffffffffffffffffffffffffffffff1673ffffffffffffffffffffffffffffffffffffffff16815260200180602001848152602001838152602001828103825285818151815260200191508051906020019080838360005b8381101561028a57808201518184015260208101905061026f565b50505050905090810190601f1680156102b75780820380516001836020036101000a031916815260200191505b509550505050505060405180910390f35b60006102d26106f4565b60008060008060008773ffffffffffffffffffffffffffffffffffffffff1673ffffffffffffffffffffffffffffffffffffffff168152602001908152602001600020905060008160000160009054906101000a900473ffffffffffffffffffffffffffffffffffffffff1673ffffffffffffffffffffffffffffffffffffffff1614151561042e57600360009054906101000a900473ffffffffffffffffffffffffffffffffffffffff169450806001018054600181600116156101000203166002900480601f0160208091040260200160405190810160405280929190818152602001828054600181600116156101000203166002900480156104185780601f106103ed57610100808354040283529160200191610418565b820191906000526020600020905b8154815290600101906020018083116103fb57829003601f168201915b5050505050935080600301549250806004015491505b848484849450945094509450509193509193565b600060025460015401905090565b60008061045b610708565b6601c6bf526340003411158015610477575064e8d4a510003410155b151561047f57fe5b600b8560ff1610151561048e57fe5b600091505b60038260ff161015610678578460ff1660048360ff166003811015156104b557fe5b602091828204019190069054906101000a900460ff1660ff16141561066b576001925033816000019073ffffffffffffffffffffffffffffffffffffffff16908173ffffffffffffffffffffffffffffffffffffffff168152505084816040019060ff16908160ff1681525050838160200181905250428160600181815250506002340281608001818152505080600080836000015173ffffffffffffffffffffffffffffffffffffffff1673ffffffffffffffffffffffffffffffffffffffff16815260200190815260200160002060008201518160000160006101000a81548173ffffffffffffffffffffffffffffffffffffffff021916908373ffffffffffffffffffffffffffffffffffffffff16021790555060208201518160010190805190602001906105e8929190610757565b5060408201518160020160006101000a81548160ff021916908360ff16021790555060608201518160030155608082015181600401559050508060000151600360006101000a81548173ffffffffffffffffffffffffffffffffffffffff021916908373ffffffffffffffffffffffffffffffffffffffff160217905550610678565b8180600101925050610493565b826106935760016000815480929190600101919050556106a5565b60026000815480929190600101919050555b50505092915050565b60006106b86106f4565b6000806106e6600360009054906101000a900473ffffffffffffffffffffffffffffffffffffffff166102c8565b935093509350935090919293565b602060405190810160405280600081525090565b60a060405190810160405280600073ffffffffffffffffffffffffffffffffffffffff1681526020016107396107d7565b8152602001600060ff16815260200160008152602001600081525090565b828054600181600116156101000203166002900490600052602060002090601f016020900481019282601f1061079857805160ff19168380011785556107c6565b828001600101855582156107c6579182015b828111156107c55782518255916020019190600101906107aa565b5b5090506107d391906107eb565b5090565b602060405190810160405280600081525090565b61080d91905b808211156108095760008160009055506001016107f1565b5090565b905600a165627a7a72305820682757f7120ab4619d592c3f905d6c6d246fd06782de545c2f9ac92bc221d38f0029",
  "source": "pragma solidity ^0.4.0;\r\n\r\nimport \"./MultiNumberBettingAbstractV1.sol\";\r\n\r\ncontract MultiNumberBettingV5 is MultiNumberBettingAbstractV1 {\r\n  struct Winner {\r\n    address winnerAddress;\r\n    string name;\r\n    uint8 guess;\r\n    uint guessAt;\r\n    uint ethersReceived;\r\n  }\r\n\r\n  mapping(address => Winner) winners;\r\n\r\n  uint loserCount = 0;\r\n  uint winnerCount = 0;\r\n\r\n  address lastWinner;\r\n\r\n  uint8[3] numbers;\r\n\r\n  function MultiNumberBettingV5(uint8 v1, uint8 v2, uint8 v3) {\r\n    numbers[0] = v1;\r\n    numbers[1] = v2;\r\n    numbers[2] = v3;\r\n  }\r\n\r\n  function guess(uint8 number, string name) payable returns (bool isCorrect) {\r\n    assert(msg.value <= MAX_BET && msg.value >= MIN_BET);\r\n    assert(number < 11);\r\n\r\n    for (uint8 i = 0; i < numbers.length; i++) {\r\n      if (numbers[i] == number) {\r\n        isCorrect = true;\r\n\r\n        Winner memory w;\r\n\r\n        w.winnerAddress = msg.sender;\r\n        w.guess = number;\r\n        w.name = name;\r\n        w.guessAt = now;\r\n        w.ethersReceived = msg.value * 2;\r\n\r\n        winners[w.winnerAddress] = w;\r\n\r\n        lastWinner = w.winnerAddress;\r\n\r\n        break;\r\n      }\r\n    }\r\n\r\n    isCorrect ? winnerCount++ : loserCount++;\r\n  }\r\n\r\n  function totalGuesses() returns (uint) {\r\n    return loserCount + winnerCount;\r\n  }\r\n\r\n  function getLastWinnerInfo() returns (address winnerAddress, string name, uint timeGuessed, uint ethers) {\r\n    return checkWinning(lastWinner);\r\n  }\r\n\r\n  function checkWinning(address player) returns (address winnerAddress, string name, uint timeGuessed, uint ethers) {\r\n    Winner storage w = winners[player];\r\n\r\n    if (w.winnerAddress != 0x0) {\r\n      winnerAddress = lastWinner;\r\n      name = w.name;\r\n      timeGuessed = w.guessAt;\r\n      ethers = w.ethersReceived;\r\n    }\r\n\r\n    return (winnerAddress, name, timeGuessed, ethers);\r\n  }\r\n}\r\n",
  "sourcePath": "C:\\cygwin\\home\\adamk\\eth\\calculator\\contracts\\MultiNumberBettingV5.sol",
  "compiler": {
    "name": "solc",
    "version": "0.4.19+commit.c4cbbb05.Emscripten.clang"
  },
  "schemaVersion": "1.0.1",
  "updatedAt": "2018-01-07T08:11:02.091Z"
}