{
  "contractName": "MultiNumberBettingV1",
  "abi": [
    {
      "constant": false,
      "inputs": [
        {
          "name": "number",
          "type": "uint8"
        }
      ],
      "name": "guess",
      "outputs": [
        {
          "name": "",
          "type": "bool"
        }
      ],
      "payable": false,
      "stateMutability": "nonpayable",
      "type": "function"
    },
    {
      "constant": false,
      "inputs": [],
      "name": "totalGuesses",
      "outputs": [
        {
          "name": "",
          "type": "uint256"
        }
      ],
      "payable": false,
      "stateMutability": "nonpayable",
      "type": "function"
    },
    {
      "inputs": [
        {
          "name": "v1",
          "type": "uint8"
        },
        {
          "name": "v2",
          "type": "uint8"
        },
        {
          "name": "v3",
          "type": "uint8"
        }
      ],
      "payable": false,
      "stateMutability": "nonpayable",
      "type": "constructor"
    }
  ],
  "bytecode": "0x6060604052600080556000600155341561001857600080fd5b60405160608061027083398101604052808051906020019091908051906020019091908051906020019091905050826002600060038110151561005757fe5b602091828204019190066101000a81548160ff021916908360ff160217905550816002600160038110151561008857fe5b602091828204019190066101000a81548160ff021916908360ff160217905550806002806003811015156100b857fe5b602091828204019190066101000a81548160ff021916908360ff160217905550505050610186806100ea6000396000f30060606040526004361061004c576000357c0100000000000000000000000000000000000000000000000000000000900463ffffffff1680634ba4c16b146100515780638ef282491461008f575b600080fd5b341561005c57600080fd5b610075600480803560ff169060200190919050506100b8565b604051808215151515815260200191505060405180910390f35b341561009a57600080fd5b6100a261014c565b6040518082815260200191505060405180910390f35b60008060008090505b60038160ff161015610118578360ff1660028260ff166003811015156100e357fe5b602091828204019190069054906101000a900460ff1660ff16141561010b5760019150610118565b80806001019150506100c1565b816101325760008081548092919060010191905055610144565b60016000815480929190600101919050555b505050919050565b6000600154600054019050905600a165627a7a72305820f8a2b4b93a7d82ea6201ae013603b700a531f492b60b87b75435de98cdea51bf0029",
  "source": "pragma solidity ^0.4.0;\r\n\r\ncontract MultiNumberBettingV1 {\r\n  uint loserCount = 0;\r\n  uint winnerCount = 0;\r\n\r\n  uint8[3] numbers;\r\n\r\n  function MultiNumberBettingV1(uint8 v1, uint8 v2, uint8 v3) {\r\n    numbers[0] = v1;\r\n    numbers[1] = v2;\r\n    numbers[2] = v3;\r\n  }\r\n\r\n  function guess(uint8 number) returns (bool) {\r\n    bool retval;\r\n\r\n    for (uint8 i = 0; i < numbers.length; i++) {\r\n      if (numbers[i] == number) {\r\n        retval = true;\r\n        break;\r\n      }\r\n    }\r\n\r\n    retval ? winnerCount++ : loserCount++;\r\n  }\r\n\r\n  function totalGuesses() returns (uint) {\r\n    return loserCount + winnerCount;\r\n  }\r\n}\r\n",
  "sourcePath": "C:\\cygwin\\home\\adamk\\eth\\calculator\\contracts\\MultiNumberBettingV1.sol",
  "compiler": {
    "name": "solc",
    "version": "0.4.19+commit.c4cbbb05.Emscripten.clang"
  },
  "schemaVersion": "1.0.1",
  "updatedAt": "2018-01-07T08:11:02.085Z"
}