{
  "contractName": "MultiNumberBettingV3",
  "abi": [
    {
      "constant": false,
      "inputs": [],
      "name": "hoursSinceLastWinning",
      "outputs": [
        {
          "name": "",
          "type": "uint256"
        }
      ],
      "payable": false,
      "stateMutability": "nonpayable",
      "type": "function"
    },
    {
      "constant": false,
      "inputs": [],
      "name": "minutesSinceLastWinning",
      "outputs": [
        {
          "name": "",
          "type": "uint256"
        }
      ],
      "payable": false,
      "stateMutability": "nonpayable",
      "type": "function"
    },
    {
      "constant": false,
      "inputs": [],
      "name": "daysSinceLastWinning",
      "outputs": [
        {
          "name": "",
          "type": "uint256"
        }
      ],
      "payable": false,
      "stateMutability": "nonpayable",
      "type": "function"
    },
    {
      "constant": false,
      "inputs": [],
      "name": "totalGuesses",
      "outputs": [
        {
          "name": "",
          "type": "uint256"
        }
      ],
      "payable": false,
      "stateMutability": "nonpayable",
      "type": "function"
    },
    {
      "constant": false,
      "inputs": [
        {
          "name": "number",
          "type": "uint8"
        },
        {
          "name": "name",
          "type": "string"
        }
      ],
      "name": "guess",
      "outputs": [
        {
          "name": "isCorrect",
          "type": "bool"
        }
      ],
      "payable": false,
      "stateMutability": "nonpayable",
      "type": "function"
    },
    {
      "constant": false,
      "inputs": [],
      "name": "getLastWinnerTime",
      "outputs": [
        {
          "name": "time",
          "type": "uint256"
        }
      ],
      "payable": false,
      "stateMutability": "nonpayable",
      "type": "function"
    },
    {
      "constant": false,
      "inputs": [],
      "name": "getLastWinner",
      "outputs": [
        {
          "name": "winnerShort",
          "type": "string"
        }
      ],
      "payable": false,
      "stateMutability": "nonpayable",
      "type": "function"
    },
    {
      "inputs": [
        {
          "name": "v1",
          "type": "uint8"
        },
        {
          "name": "v2",
          "type": "uint8"
        },
        {
          "name": "v3",
          "type": "uint8"
        }
      ],
      "payable": false,
      "stateMutability": "nonpayable",
      "type": "constructor"
    }
  ],
  "bytecode": "0x60606040526000805560006001556040805190810160405280600381526020017f2a2a2a00000000000000000000000000000000000000000000000000000000008152506002908051906020019061005892919061012d565b50341561006457600080fd5b6040516060806108d58339810160405280805190602001909190805190602001909190805190602001909190505082600560006003811015156100a357fe5b602091828204019190066101000a81548160ff021916908360ff16021790555081600560016003811015156100d457fe5b602091828204019190066101000a81548160ff021916908360ff160217905550806005600260038110151561010557fe5b602091828204019190066101000a81548160ff021916908360ff1602179055505050506101d2565b828054600181600116156101000203166002900490600052602060002090601f016020900481019282601f1061016e57805160ff191683800117855561019c565b8280016001018555821561019c579182015b8281111561019b578251825591602001919060010190610180565b5b5090506101a991906101ad565b5090565b6101cf91905b808211156101cb5760008160009055506001016101b3565b5090565b90565b6106f4806101e16000396000f300606060405260043610610083576000357c0100000000000000000000000000000000000000000000000000000000900463ffffffff16806315153cdc1461008857806348992bfa146100b15780636d48a043146100da5780638ef282491461010357806395583f711461012c5780639c993690146101ad578063f88649a1146101d6575b600080fd5b341561009357600080fd5b61009b610264565b6040518082815260200191505060405180910390f35b34156100bc57600080fd5b6100c4610274565b6040518082815260200191505060405180910390f35b34156100e557600080fd5b6100ed610283565b6040518082815260200191505060405180910390f35b341561010e57600080fd5b610116610294565b6040518082815260200191505060405180910390f35b341561013757600080fd5b610193600480803560ff1690602001909190803590602001908201803590602001908080601f016020809104026020016040519081016040528093929190818152602001838380828437820191505050505050919050506102a2565b604051808215151515815260200191505060405180910390f35b34156101b857600080fd5b6101c06103a3565b6040518082815260200191505060405180910390f35b34156101e157600080fd5b6101e96103ad565b6040518080602001828103825283818151815260200191508051906020019080838360005b8381101561022957808201518184015260208101905061020e565b50505050905090810190601f1680156102565780820380516001836020036101000a031916815260200191505b509250505060405180910390f35b6000610e10600354024203905090565b6000603c600354024203905090565b600062015180600354024203905090565b600060015460005401905090565b600080600b8460ff161015156102b457fe5b600090505b60038160ff16101561036f578360ff1660058260ff166003811015156102db57fe5b602091828204019190069054906101000a900460ff1660ff161415610362576001915082600290805190602001906103149291906105fb565b504260038190555033600460006101000a81548173ffffffffffffffffffffffffffffffffffffffff021916908373ffffffffffffffffffffffffffffffffffffffff16021790555061036f565b80806001019150506102b9565b81610389576000808154809291906001019190505561039b565b60016000815480929190600101919050555b505092915050565b6000600354905090565b6103b561067b565b6103bd61068f565b6103c561068f565b600060028054600181600116156101000203166002900480601f01602080910402602001604051908101604052809291908181526020018280546001816001161561010002031660029004801561045d5780601f106104325761010080835404028352916020019161045d565b820191906000526020600020905b81548152906001019060200180831161044057829003601f168201915b505050505092506004835110156105105760028054600181600116156101000203166002900480601f0160208091040260200160405190810160405280929190818152602001828054600181600116156101000203166002900480156105045780601f106104d957610100808354040283529160200191610504565b820191906000526020600020905b8154815290600101906020018083116104e757829003601f168201915b505050505093506105f5565b600360405180591061051f5750595b9080825280601f01601f19166020018201604052509150600090505b60038160ff1610156105f157828160ff1681518110151561055857fe5b9060200101517f010000000000000000000000000000000000000000000000000000000000000090047f010000000000000000000000000000000000000000000000000000000000000002828260ff168151811015156105b457fe5b9060200101907effffffffffffffffffffffffffffffffffffffffffffffffffffffffffffff1916908160001a905350808060010191505061053b565b8193505b50505090565b828054600181600116156101000203166002900490600052602060002090601f016020900481019282601f1061063c57805160ff191683800117855561066a565b8280016001018555821561066a579182015b8281111561066957825182559160200191906001019061064e565b5b50905061067791906106a3565b5090565b602060405190810160405280600081525090565b602060405190810160405280600081525090565b6106c591905b808211156106c15760008160009055506001016106a9565b5090565b905600a165627a7a72305820f6308b78701b7d92f9865f6c66e1fcfdfce2cf29dd002459cfc1ea7c510f6e1b0029",
  "source": "pragma solidity ^0.4.0;\r\n\r\ncontract MultiNumberBettingV3 {\r\n  uint loserCount = 0;\r\n  uint winnerCount = 0;\r\n\r\n  string lastWinnerName = \"***\";\r\n\r\n  uint lastWinnerAt;\r\n\r\n  address winner;\r\n\r\n  uint8[3] numbers;\r\n\r\n  function MultiNumberBettingV3(uint8 v1, uint8 v2, uint8 v3) {\r\n    numbers[0] = v1;\r\n    numbers[1] = v2;\r\n    numbers[2] = v3;\r\n  }\r\n\r\n  function guess(uint8 number, string name) returns (bool isCorrect) {\r\n    assert (number < 11);\r\n\r\n    for (uint8 i = 0; i < numbers.length; i++) {\r\n      if (numbers[i] == number) {\r\n        isCorrect = true;\r\n        lastWinnerName = name;\r\n        lastWinnerAt = now;\r\n        winner = msg.sender;\r\n        break;\r\n      }\r\n    }\r\n\r\n    isCorrect ? winnerCount++ : loserCount++;\r\n  }\r\n\r\n  function totalGuesses() returns (uint) {\r\n    return loserCount + winnerCount;\r\n  }\r\n\r\n  function getLastWinner() returns (string winnerShort) {\r\n    bytes memory lastWinnerNameBytes = bytes(lastWinnerName);\r\n\r\n    if (lastWinnerNameBytes.length < 4)\r\n      winnerShort = lastWinnerName;\r\n    else {\r\n      // Fuck string/byte array manipulation in Solidity. This is stupid. USE STRING UTILS!!\r\n      bytes memory winnerShortBytes = new bytes(3);\r\n\r\n      for (uint8 i = 0; i < 3; i++)\r\n        winnerShortBytes[i] = lastWinnerNameBytes[i];\r\n\r\n      winnerShort = string(winnerShortBytes);\r\n    }\r\n  }\r\n\r\n  function getLastWinnerTime() returns (uint time) {\r\n    time = lastWinnerAt;\r\n  }\r\n\r\n  function daysSinceLastWinning()  returns (uint){\r\n    return (now - lastWinnerAt*1 days);\r\n  }\r\n\r\n  function hoursSinceLastWinning() returns (uint){\r\n    return (now - lastWinnerAt*1 hours);\r\n  }\r\n\r\n  function  minutesSinceLastWinning() returns (uint){\r\n    return (now - lastWinnerAt*1 minutes);\r\n  }\r\n}\r\n",
  "sourcePath": "C:\\cygwin\\home\\adamk\\eth\\calculator\\contracts\\MultiNumberBettingV3.sol",
  "compiler": {
    "name": "solc",
    "version": "0.4.19+commit.c4cbbb05.Emscripten.clang"
  },
  "schemaVersion": "1.0.1",
  "updatedAt": "2018-01-07T08:11:02.095Z"
}