{
  "contractName": "MultiNumberBettingV4",
  "abi": [
    {
      "constant": false,
      "inputs": [
        {
          "name": "player",
          "type": "address"
        }
      ],
      "name": "checkWinning",
      "outputs": [
        {
          "name": "winnerAddress",
          "type": "address"
        },
        {
          "name": "name",
          "type": "string"
        },
        {
          "name": "timeGuessed",
          "type": "uint256"
        }
      ],
      "payable": false,
      "stateMutability": "nonpayable",
      "type": "function"
    },
    {
      "constant": false,
      "inputs": [],
      "name": "totalGuesses",
      "outputs": [
        {
          "name": "",
          "type": "uint256"
        }
      ],
      "payable": false,
      "stateMutability": "nonpayable",
      "type": "function"
    },
    {
      "constant": false,
      "inputs": [
        {
          "name": "number",
          "type": "uint8"
        },
        {
          "name": "name",
          "type": "string"
        }
      ],
      "name": "guess",
      "outputs": [
        {
          "name": "isCorrect",
          "type": "bool"
        }
      ],
      "payable": false,
      "stateMutability": "nonpayable",
      "type": "function"
    },
    {
      "constant": false,
      "inputs": [],
      "name": "getLastWinnerInfo",
      "outputs": [
        {
          "name": "winnerAddress",
          "type": "address"
        },
        {
          "name": "name",
          "type": "string"
        },
        {
          "name": "timeGuessed",
          "type": "uint256"
        }
      ],
      "payable": false,
      "stateMutability": "nonpayable",
      "type": "function"
    },
    {
      "inputs": [
        {
          "name": "v1",
          "type": "uint8"
        },
        {
          "name": "v2",
          "type": "uint8"
        },
        {
          "name": "v3",
          "type": "uint8"
        }
      ],
      "payable": false,
      "stateMutability": "nonpayable",
      "type": "constructor"
    }
  ],
  "bytecode": "0x606060405260006001556000600255341561001957600080fd5b6040516060806108d383398101604052808051906020019091908051906020019091908051906020019091905050826004600060038110151561005857fe5b602091828204019190066101000a81548160ff021916908360ff160217905550816004600160038110151561008957fe5b602091828204019190066101000a81548160ff021916908360ff16021790555080600460026003811015156100ba57fe5b602091828204019190066101000a81548160ff021916908360ff1602179055505050506107e7806100ec6000396000f300606060405260043610610062576000357c0100000000000000000000000000000000000000000000000000000000900463ffffffff1680635249c231146100675780638ef282491461015357806395583f711461017c578063ee040eb9146101fd575b600080fd5b341561007257600080fd5b61009e600480803573ffffffffffffffffffffffffffffffffffffffff169060200190919050506102c5565b604051808473ffffffffffffffffffffffffffffffffffffffff1673ffffffffffffffffffffffffffffffffffffffff16815260200180602001838152602001828103825284818151815260200191508051906020019080838360005b838110156101165780820151818401526020810190506100fb565b50505050905090810190601f1680156101435780820380516001836020036101000a031916815260200191505b5094505050505060405180910390f35b341561015e57600080fd5b610166610433565b6040518082815260200191505060405180910390f35b341561018757600080fd5b6101e3600480803560ff1690602001909190803590602001908201803590602001908080601f01602080910402602001604051908101604052809392919081815260200183838082843782019150505050505091905050610441565b604051808215151515815260200191505060405180910390f35b341561020857600080fd5b610210610664565b604051808473ffffffffffffffffffffffffffffffffffffffff1673ffffffffffffffffffffffffffffffffffffffff16815260200180602001838152602001828103825284818151815260200191508051906020019080838360005b8381101561028857808201518184015260208101905061026d565b50505050905090810190601f1680156102b55780820380516001836020036101000a031916815260200191505b5094505050505060405180910390f35b60006102cf6106a6565b6000806000808673ffffffffffffffffffffffffffffffffffffffff1673ffffffffffffffffffffffffffffffffffffffff168152602001908152602001600020905060008160000160009054906101000a900473ffffffffffffffffffffffffffffffffffffffff1673ffffffffffffffffffffffffffffffffffffffff1614151561042257600360009054906101000a900473ffffffffffffffffffffffffffffffffffffffff169350806001018054600181600116156101000203166002900480601f0160208091040260200160405190810160405280929190818152602001828054600181600116156101000203166002900480156104135780601f106103e857610100808354040283529160200191610413565b820191906000526020600020905b8154815290600101906020018083116103f657829003601f168201915b50505050509250806003015491505b838383935093509350509193909250565b600060025460015401905090565b60008061044c6106ba565b600b8560ff1610151561045b57fe5b600091505b60038260ff16101561062e578460ff1660048360ff1660038110151561048257fe5b602091828204019190069054906101000a900460ff1660ff161415610621576001925033816000019073ffffffffffffffffffffffffffffffffffffffff16908173ffffffffffffffffffffffffffffffffffffffff168152505084816040019060ff16908160ff16815250508381602001819052504281606001818152505080600080836000015173ffffffffffffffffffffffffffffffffffffffff1673ffffffffffffffffffffffffffffffffffffffff16815260200190815260200160002060008201518160000160006101000a81548173ffffffffffffffffffffffffffffffffffffffff021916908373ffffffffffffffffffffffffffffffffffffffff16021790555060208201518160010190805190602001906105a8929190610702565b5060408201518160020160006101000a81548160ff021916908360ff160217905550606082015181600301559050508060000151600360006101000a81548173ffffffffffffffffffffffffffffffffffffffff021916908373ffffffffffffffffffffffffffffffffffffffff16021790555061062e565b8180600101925050610460565b8261064957600160008154809291906001019190505561065b565b60026000815480929190600101919050555b50505092915050565b600061066e6106a6565b600061069b600360009054906101000a900473ffffffffffffffffffffffffffffffffffffffff166102c5565b925092509250909192565b602060405190810160405280600081525090565b608060405190810160405280600073ffffffffffffffffffffffffffffffffffffffff1681526020016106eb610782565b8152602001600060ff168152602001600081525090565b828054600181600116156101000203166002900490600052602060002090601f016020900481019282601f1061074357805160ff1916838001178555610771565b82800160010185558215610771579182015b82811115610770578251825591602001919060010190610755565b5b50905061077e9190610796565b5090565b602060405190810160405280600081525090565b6107b891905b808211156107b457600081600090555060010161079c565b5090565b905600a165627a7a72305820226e5459325da7e4a44dfa22287df57442801ca7b7342cb71abd3aceee18505a0029",
  "source": "pragma solidity ^0.4.0;\r\n\r\ncontract MultiNumberBettingV4 {\r\n  struct Winner {\r\n    address winnerAddress;\r\n    string name;\r\n    uint8 guess;\r\n    uint guessAt;\r\n  }\r\n\r\n  mapping(address => Winner) winners;\r\n\r\n  uint loserCount = 0;\r\n  uint winnerCount = 0;\r\n\r\n  address lastWinner;\r\n\r\n  uint8[3] numbers;\r\n\r\n  function MultiNumberBettingV4(uint8 v1, uint8 v2, uint8 v3) {\r\n    numbers[0] = v1;\r\n    numbers[1] = v2;\r\n    numbers[2] = v3;\r\n  }\r\n\r\n  function guess(uint8 number, string name) returns (bool isCorrect) {\r\n    assert (number < 11);\r\n\r\n    for (uint8 i = 0; i < numbers.length; i++) {\r\n      if (numbers[i] == number) {\r\n        isCorrect = true;\r\n\r\n        Winner memory w;\r\n\r\n        w.winnerAddress = msg.sender;\r\n        w.guess = number;\r\n        w.name = name;\r\n        w.guessAt = now;\r\n\r\n        winners[w.winnerAddress] = w;\r\n\r\n        lastWinner = w.winnerAddress;\r\n\r\n        break;\r\n      }\r\n    }\r\n\r\n    isCorrect ? winnerCount++ : loserCount++;\r\n  }\r\n\r\n  function totalGuesses() returns (uint) {\r\n    return loserCount + winnerCount;\r\n  }\r\n\r\n  function getLastWinnerInfo() returns (address winnerAddress, string name, uint timeGuessed) {\r\n    return checkWinning(lastWinner);\r\n  }\r\n\r\n  function checkWinning(address player) returns (address winnerAddress, string name, uint timeGuessed) {\r\n    Winner storage w = winners[player];\r\n\r\n    if (w.winnerAddress != 0x0) {\r\n      winnerAddress = lastWinner;\r\n      name = w.name;\r\n      timeGuessed = w.guessAt;\r\n    }\r\n\r\n    return (winnerAddress, name, timeGuessed);\r\n  }\r\n}\r\n",
  "sourcePath": "C:\\cygwin\\home\\adamk\\eth\\calculator\\contracts\\MultiNumberBettingV4.sol",
  "compiler": {
    "name": "solc",
    "version": "0.4.19+commit.c4cbbb05.Emscripten.clang"
  },
  "schemaVersion": "1.0.1",
  "updatedAt": "2018-01-07T08:11:02.087Z"
}