{
  "contractName": "MultiNumberBettingV2",
  "abi": [
    {
      "constant": false,
      "inputs": [],
      "name": "totalGuesses",
      "outputs": [
        {
          "name": "",
          "type": "uint256"
        }
      ],
      "payable": false,
      "stateMutability": "nonpayable",
      "type": "function"
    },
    {
      "constant": false,
      "inputs": [
        {
          "name": "number",
          "type": "uint8"
        },
        {
          "name": "name",
          "type": "string"
        }
      ],
      "name": "guess",
      "outputs": [
        {
          "name": "isCorrect",
          "type": "bool"
        }
      ],
      "payable": false,
      "stateMutability": "nonpayable",
      "type": "function"
    },
    {
      "constant": false,
      "inputs": [],
      "name": "getLastWinner",
      "outputs": [
        {
          "name": "winnerShort",
          "type": "string"
        }
      ],
      "payable": false,
      "stateMutability": "nonpayable",
      "type": "function"
    },
    {
      "inputs": [
        {
          "name": "v1",
          "type": "uint8"
        },
        {
          "name": "v2",
          "type": "uint8"
        },
        {
          "name": "v3",
          "type": "uint8"
        }
      ],
      "payable": false,
      "stateMutability": "nonpayable",
      "type": "constructor"
    }
  ],
  "bytecode": "0x60606040526000805560006001556040805190810160405280600381526020017f2a2a2a00000000000000000000000000000000000000000000000000000000008152506002908051906020019061005892919061012d565b50341561006457600080fd5b6040516060806107748339810160405280805190602001909190805190602001909190805190602001909190505082600360006003811015156100a357fe5b602091828204019190066101000a81548160ff021916908360ff16021790555081600360016003811015156100d457fe5b602091828204019190066101000a81548160ff021916908360ff160217905550806003600260038110151561010557fe5b602091828204019190066101000a81548160ff021916908360ff1602179055505050506101d2565b828054600181600116156101000203166002900490600052602060002090601f016020900481019282601f1061016e57805160ff191683800117855561019c565b8280016001018555821561019c579182015b8281111561019b578251825591602001919060010190610180565b5b5090506101a991906101ad565b5090565b6101cf91905b808211156101cb5760008160009055506001016101b3565b5090565b90565b610593806101e16000396000f300606060405260043610610057576000357c0100000000000000000000000000000000000000000000000000000000900463ffffffff1680638ef282491461005c57806395583f7114610085578063f88649a114610106575b600080fd5b341561006757600080fd5b61006f610194565b6040518082815260200191505060405180910390f35b341561009057600080fd5b6100ec600480803560ff1690602001909190803590602001908201803590602001908080601f016020809104026020016040519081016040528093929190818152602001838380828437820191505050505050919050506101a2565b604051808215151515815260200191505060405180910390f35b341561011157600080fd5b61011961024c565b6040518080602001828103825283818151815260200191508051906020019080838360005b8381101561015957808201518184015260208101905061013e565b50505050905090810190601f1680156101865780820380516001836020036101000a031916815260200191505b509250505060405180910390f35b600060015460005401905090565b600080600090505b60038160ff161015610218578360ff1660038260ff166003811015156101cc57fe5b602091828204019190069054906101000a900460ff1660ff16141561020b5760019150826002908051906020019061020592919061049a565b50610218565b80806001019150506101aa565b816102325760008081548092919060010191905055610244565b60016000815480929190600101919050555b505092915050565b61025461051a565b61025c61052e565b61026461052e565b600060028054600181600116156101000203166002900480601f0160208091040260200160405190810160405280929190818152602001828054600181600116156101000203166002900480156102fc5780601f106102d1576101008083540402835291602001916102fc565b820191906000526020600020905b8154815290600101906020018083116102df57829003601f168201915b505050505092506004835110156103af5760028054600181600116156101000203166002900480601f0160208091040260200160405190810160405280929190818152602001828054600181600116156101000203166002900480156103a35780601f10610378576101008083540402835291602001916103a3565b820191906000526020600020905b81548152906001019060200180831161038657829003601f168201915b50505050509350610494565b60036040518059106103be5750595b9080825280601f01601f19166020018201604052509150600090505b60038160ff16101561049057828160ff168151811015156103f757fe5b9060200101517f010000000000000000000000000000000000000000000000000000000000000090047f010000000000000000000000000000000000000000000000000000000000000002828260ff1681518110151561045357fe5b9060200101907effffffffffffffffffffffffffffffffffffffffffffffffffffffffffffff1916908160001a90535080806001019150506103da565b8193505b50505090565b828054600181600116156101000203166002900490600052602060002090601f016020900481019282601f106104db57805160ff1916838001178555610509565b82800160010185558215610509579182015b828111156105085782518255916020019190600101906104ed565b5b5090506105169190610542565b5090565b602060405190810160405280600081525090565b602060405190810160405280600081525090565b61056491905b80821115610560576000816000905550600101610548565b5090565b905600a165627a7a72305820fac1facfa10bd41db25ef4c43cbde52581d25823a7f329e3157315cd60ec80770029",
  "source": "pragma solidity ^0.4.0;\r\n\r\ncontract MultiNumberBettingV2 {\r\n  uint loserCount = 0;\r\n  uint winnerCount = 0;\r\n\r\n  string lastWinnerName = \"***\";\r\n\r\n  uint8[3] numbers;\r\n\r\n  function MultiNumberBettingV2(uint8 v1, uint8 v2, uint8 v3) {\r\n    numbers[0] = v1;\r\n    numbers[1] = v2;\r\n    numbers[2] = v3;\r\n  }\r\n\r\n  function guess(uint8 number, string name) returns (bool isCorrect) {\r\n    for (uint8 i = 0; i < numbers.length; i++) {\r\n      if (numbers[i] == number) {\r\n        isCorrect = true;\r\n        lastWinnerName = name;\r\n        break;\r\n      }\r\n    }\r\n\r\n    isCorrect ? winnerCount++ : loserCount++;\r\n  }\r\n\r\n  function getLastWinner() returns (string winnerShort) {\r\n    bytes memory lastWinnerNameBytes = bytes(lastWinnerName);\r\n\r\n    if (lastWinnerNameBytes.length < 4)\r\n      winnerShort = lastWinnerName;\r\n    else {\r\n      // Fuck string/byte array manipulation in Solidity. This is stupid. USE STRING UTILS!!\r\n      bytes memory winnerShortBytes = new bytes(3);\r\n\r\n      for (uint8 i = 0; i < 3; i++)\r\n        winnerShortBytes[i] = lastWinnerNameBytes[i];\r\n\r\n      winnerShort = string(winnerShortBytes);\r\n    }\r\n  }\r\n\r\n  function totalGuesses() returns (uint) {\r\n    return loserCount + winnerCount;\r\n  }\r\n}\r\n",
  "sourcePath": "C:\\cygwin\\home\\adamk\\eth\\calculator\\contracts\\MultiNumberBettingV2.sol",
  "compiler": {
    "name": "solc",
    "version": "0.4.19+commit.c4cbbb05.Emscripten.clang"
  },
  "schemaVersion": "1.0.1",
  "updatedAt": "2018-01-07T08:11:02.081Z"
}